{
  "contractName": "UselessSquares",
  "abi": [
    {
      "inputs": [],
      "stateMutability": "nonpayable",
      "type": "constructor"
    },
    {
      "inputs": [],
      "name": "owner",
      "outputs": [
        {
          "internalType": "address",
          "name": "",
          "type": "address"
        }
      ],
      "stateMutability": "view",
      "type": "function",
      "constant": true
    },
    {
      "inputs": [
        {
          "internalType": "uint256",
          "name": "",
          "type": "uint256"
        }
      ],
      "name": "plots",
      "outputs": [
        {
          "internalType": "address",
          "name": "owner",
          "type": "address"
        },
        {
          "internalType": "string",
          "name": "text",
          "type": "string"
        },
        {
          "internalType": "uint256",
          "name": "color",
          "type": "uint256"
        },
        {
          "internalType": "uint256",
          "name": "salePrice",
          "type": "uint256"
        }
      ],
      "stateMutability": "view",
      "type": "function",
      "constant": true
    },
    {
      "inputs": [
        {
          "internalType": "uint256",
          "name": "_plot",
          "type": "uint256"
        },
        {
          "internalType": "string",
          "name": "_text",
          "type": "string"
        },
        {
          "internalType": "uint256",
          "name": "_color",
          "type": "uint256"
        }
      ],
      "name": "buyPlot",
      "outputs": [],
      "stateMutability": "payable",
      "type": "function",
      "payable": true
    },
    {
      "inputs": [
        {
          "internalType": "uint256",
          "name": "_plot",
          "type": "uint256"
        },
        {
          "internalType": "uint256",
          "name": "_salePrice",
          "type": "uint256"
        }
      ],
      "name": "setPlotPrice",
      "outputs": [],
      "stateMutability": "nonpayable",
      "type": "function"
    }
  ],
  "bytecode": "0x6080604052336000806101000a81548173ffffffffffffffffffffffffffffffffffffffff021916908373ffffffffffffffffffffffffffffffffffffffff1602179055503480156200005157600080fd5b5060005b601c811015620001a357604051806080016040528060008054906101000a900473ffffffffffffffffffffffffffffffffffffffff1673ffffffffffffffffffffffffffffffffffffffff1681526020016040518060400160405280600d81526020017f2f75304341305f2f753043413000000000000000000000000000000000000000815250815260200162ff0000815260200166038d7ea4c68000815250600182601c81106200010c576200010b6200025a565b5b6004020160008201518160000160006101000a81548173ffffffffffffffffffffffffffffffffffffffff021916908373ffffffffffffffffffffffffffffffffffffffff160217905550602082015181600101908051906020019062000175929190620001aa565b50604082015181600201556060820151816003015590505080806200019a90620002c2565b91505062000055565b5062000375565b828054620001b8906200033f565b90600052602060002090601f016020900481019282620001dc576000855562000228565b82601f10620001f757805160ff191683800117855562000228565b8280016001018555821562000228579182015b82811115620002275782518255916020019190600101906200020a565b5b5090506200023791906200023b565b5090565b5b80821115620002565760008160009055506001016200023c565b5090565b7f4e487b7100000000000000000000000000000000000000000000000000000000600052603260045260246000fd5b7f4e487b7100000000000000000000000000000000000000000000000000000000600052601160045260246000fd5b6000819050919050565b6000620002cf82620002b8565b91507fffffffffffffffffffffffffffffffffffffffffffffffffffffffffffffffff82141562000305576200030462000289565b5b600182019050919050565b7f4e487b7100000000000000000000000000000000000000000000000000000000600052602260045260246000fd5b600060028204905060018216806200035857607f821691505b602082108114156200036f576200036e62000310565b5b50919050565b610a0880620003856000396000f3fe60806040526004361061003f5760003560e01c806361bf49ee146100445780638467ec16146100845780638da5cb5b146100a0578063aab1b6ac146100cb575b600080fd5b34801561005057600080fd5b5061006b6004803603810190610066919061059b565b6100f4565b60405161007b94939291906106b1565b60405180910390f35b61009e60048036038101906100999190610832565b6101d2565b005b3480156100ac57600080fd5b506100b56103d9565b6040516100c291906108a1565b60405180910390f35b3480156100d757600080fd5b506100f260048036038101906100ed91906108bc565b6103fd565b005b600181601c811061010457600080fd5b600402016000915090508060000160009054906101000a900473ffffffffffffffffffffffffffffffffffffffff16908060010180546101439061092b565b80601f016020809104026020016040519081016040528092919081815260200182805461016f9061092b565b80156101bc5780601f10610191576101008083540402835291602001916101bc565b820191906000526020600020905b81548152906001019060200180831161019f57829003601f168201915b5050505050908060020154908060030154905084565b600083101580156101e35750601c83105b6101ec57600080fd5b6000600184601c81106102025761020161095d565b5b60040201600301541161021457600080fd5b600183601c81106102285761022761095d565b5b600402016003015434101561023c57600080fd5b6000600184601c81106102525761025161095d565b5b6004020160000160009054906101000a900473ffffffffffffffffffffffffffffffffffffffff1673ffffffffffffffffffffffffffffffffffffffff16600185601c81106102a4576102a361095d565b5b60040201600301546040516102b8906109bd565b60006040518083038185875af1925050503d80600081146102f5576040519150601f19603f3d011682016040523d82523d6000602084013e6102fa565b606091505b505090508061030857600080fd5b33600185601c811061031d5761031c61095d565b5b6004020160000160006101000a81548173ffffffffffffffffffffffffffffffffffffffff021916908373ffffffffffffffffffffffffffffffffffffffff1602179055506000600185601c81106103785761037761095d565b5b600402016003018190555082600185601c81106103985761039761095d565b5b6004020160010190805190602001906103b29291906104ae565b5081600185601c81106103c8576103c761095d565b5b600402016002018190555050505050565b60008054906101000a900473ffffffffffffffffffffffffffffffffffffffff1681565b6000821015801561040e5750601c82105b61041757600080fd5b3373ffffffffffffffffffffffffffffffffffffffff16600183601c81106104425761044161095d565b5b6004020160000160009054906101000a900473ffffffffffffffffffffffffffffffffffffffff1673ffffffffffffffffffffffffffffffffffffffff161461048a57600080fd5b80600183601c811061049f5761049e61095d565b5b60040201600301819055505050565b8280546104ba9061092b565b90600052602060002090601f0160209004810192826104dc5760008555610523565b82601f106104f557805160ff1916838001178555610523565b82800160010185558215610523579182015b82811115610522578251825591602001919060010190610507565b5b5090506105309190610534565b5090565b5b8082111561054d576000816000905550600101610535565b5090565b6000604051905090565b600080fd5b600080fd5b6000819050919050565b61057881610565565b811461058357600080fd5b50565b6000813590506105958161056f565b92915050565b6000602082840312156105b1576105b061055b565b5b60006105bf84828501610586565b91505092915050565b600073ffffffffffffffffffffffffffffffffffffffff82169050919050565b60006105f3826105c8565b9050919050565b610603816105e8565b82525050565b600081519050919050565b600082825260208201905092915050565b60005b83811015610643578082015181840152602081019050610628565b83811115610652576000848401525b50505050565b6000601f19601f8301169050919050565b600061067482610609565b61067e8185610614565b935061068e818560208601610625565b61069781610658565b840191505092915050565b6106ab81610565565b82525050565b60006080820190506106c660008301876105fa565b81810360208301526106d88186610669565b90506106e760408301856106a2565b6106f460608301846106a2565b95945050505050565b600080fd5b600080fd5b7f4e487b7100000000000000000000000000000000000000000000000000000000600052604160045260246000fd5b61073f82610658565b810181811067ffffffffffffffff8211171561075e5761075d610707565b5b80604052505050565b6000610771610551565b905061077d8282610736565b919050565b600067ffffffffffffffff82111561079d5761079c610707565b5b6107a682610658565b9050602081019050919050565b82818337600083830152505050565b60006107d56107d084610782565b610767565b9050828152602081018484840111156107f1576107f0610702565b5b6107fc8482856107b3565b509392505050565b600082601f830112610819576108186106fd565b5b81356108298482602086016107c2565b91505092915050565b60008060006060848603121561084b5761084a61055b565b5b600061085986828701610586565b935050602084013567ffffffffffffffff81111561087a57610879610560565b5b61088686828701610804565b925050604061089786828701610586565b9150509250925092565b60006020820190506108b660008301846105fa565b92915050565b600080604083850312156108d3576108d261055b565b5b60006108e185828601610586565b92505060206108f285828601610586565b9150509250929050565b7f4e487b7100000000000000000000000000000000000000000000000000000000600052602260045260246000fd5b6000600282049050600182168061094357607f821691505b60208210811415610957576109566108fc565b5b50919050565b7f4e487b7100000000000000000000000000000000000000000000000000000000600052603260045260246000fd5b600081905092915050565b50565b60006109a760008361098c565b91506109b282610997565b600082019050919050565b60006109c88261099a565b915081905091905056fea264697066735822122036ffccd0f2d8f3e7255126020b4a8ce3f7a0ad9ebb0aef5dcafb68fa0a7dfd4564736f6c634300080b0033",
  "immutableReferences": {},
  "source": "// SPDX-License-Identifier: MIT\npragma solidity >=0.4.22 <0.9.0;\n\nuint256 constant TOTAL_PLOTS = 28;\n\ncontract UselessSquares {\n    address public owner = msg.sender;\n\n    struct Plot {\n        address owner;\n        string text;\n        uint256 color;\n        uint256 salePrice;\n    }\n\n    Plot[TOTAL_PLOTS] public plots;\n\n    constructor() {\n        for (uint256 i = 0; i < TOTAL_PLOTS; i++) {\n            plots[i] = Plot({\n                owner: owner,\n                text: \"/u0CA0_/u0CA0\",\n                color: 0xFF0000,\n                salePrice: 1e15\n            });\n        }\n    }\n\n    function buyPlot(\n        uint256 _plot,\n        string memory _text,\n        uint256 _color\n    ) external payable {\n        require(_plot >= 0 && _plot < TOTAL_PLOTS); // can't go out of bounds\n        require(plots[_plot].salePrice > 0); // must be for sale\n        require(msg.value >= plots[_plot].salePrice); // they must pay the right price\n        (bool success, ) = plots[_plot].owner.call{\n            value: plots[_plot].salePrice\n        }(\"\");\n        require(success);\n        plots[_plot].owner = msg.sender;\n        plots[_plot].salePrice = 0;\n        plots[_plot].text = _text;\n        plots[_plot].color = _color;\n    }\n\n    function setPlotPrice(uint256 _plot, uint256 _salePrice) external {\n        require(_plot >= 0 && _plot < TOTAL_PLOTS); // can't go out of bounds\n        require(plots[_plot].owner == msg.sender); // must be owner\n        plots[_plot].salePrice = _salePrice;\n    }\n}\n",
  "sourcePath": "/Users/cseibert/Workspace/web3-virtual-realestate/contracts/UselessSquares.sol",
  "compiler": {
    "name": "solc",
    "version": "0.8.11+commit.d7f03943.Emscripten.clang"
  },
  "schemaVersion": "3.4.4",
  "updatedAt": "2022-01-12T03:40:52.419Z",
  "networkType": "ethereum",
  "devdoc": {
    "kind": "dev",
    "methods": {},
    "version": 1
  },
  "userdoc": {
    "kind": "user",
    "methods": {},
    "version": 1
  }
}